S020000057465F52544F535F4861726B6F6E6E656E735F41747461636B2E73333763
S21400000000100020512000009920000099200000D8
S21400001099200000992000009920000099200000F7
S21400002099200000992000009920000099200000E7
S2140000309920000099200000139E000099200000DF
S21400004099200000992000009920000099200000C7
S21400005099200000992000009920000099200000B7
S214000060992000009920000025C700009920000074
S2140000709920000099200000992000009920000097
S2140000809920000099200000BDC7000099200000BC
S2140000909920000099200000992000009920000077
S2140000A09920000099200000992000009920000067
S2140000B0992000009920000029C400009920000023
S2140000C09920000099200000992000009920000047
S2140000D09920000099200000992000009920000037
S2140000E09920000099200000992000009920000027
S2140000F09920000099200000992000009920000017
S21400010099200000992000009920000010B5054CA9
S214000110237833B9044B13B10448AFF300800123AE
S214000120237010BD9011002000000000E8100100B0
S21400013008B5034B1BB103490348AFF3008008BD65
S2140001400000000094110020E8100100A3F5803A9A
S214000150704700BF174B002B08BF134B9D46FFF799
S214000160F5FF00218B460F461348144A121A0EF06C
S214000170E3FE0E4B002B00D098470D4B002B00D013
S21400018098470020002104000D000D48002802D0EA
S2140001900C48AFF300800EF08DFE200029000EF014
S2140001A04FF80EF073FE00BF0000080000000000CD
S2140001B000000000001000209011002010D8002041
S2140001C0000000000000000000B583B01F4B019344
S2140001D0019B03221A61019B03225A61019B1C4A60
S2140001E09A61019B1B4ADA61019B4FF480621A6296
S2140001F0019B00229A62019B00225A62019B002208
S214000200DA62019B124A1A66019B134A5A66019BE0
S21400021010229A66019B00221A67019B0022DA666A
S214000220019B00225A67019B07330C4918460EF0C3
S21400023041FF019B0A4918460EF03CFF019B202215
S2140002409A7100BF03B05DF804FB00BFAC1100203C
S21400025030F7000054120020541600203CF700002F
S21400026040F7000000B58BB00390029101923C4B22
S2140002701B78002B01D1FFF7A7FF039A13465B00FC
S2140002801344DB006033364A13440693029B0793FD
S214000290069B1B690893069BDB680593002309935E
S2140002A0089A059B9A422AD9069B9A68089BD31AF5
S2140002B00493049A019B934228BF13460493069B1B
S2140002C05A68089B1344049A194607980EF026FEAF
S2140002D0099A049B13440993079A049B13440793B3
S2140002E0019A049BD31A0193089A049B134408931B
S2140002F0069B9B68089A9A4201D100230893059AA8
S214000300089BD31A0493049A019B934228BF134672
S2140003100493049B002B18D0069B5A68089B134432
S214000320049A194607980EF0F9FD099A049B13449F
S2140003300993079A049B13440793019A049BD31AC4
S2140003400193089A049B13440893099B002B02D040
S214000350069B089A1A61099B18460BB05DF804FBC9
S214000360AC11002000B587B0039002910192009373
S214000370304B1B78002B01D1FFF726FF2D4B1B6956
S2140003801A46039B93424CD2EFF311834FF02001A1
S21400039081F311880493039B002B32D02549039BDD
S2140003A05A1C13465B001344DB000B44029A1A6087
S2140003B02049039B5A1C13465B001344DB000B4486
S2140003C00433019A1A601B49039A13465B001344D0
S2140003D0DB000B442033009A1A601649039A134632
S2140003E05B001344DB000B44283300221A601149DB
S2140003F0039A13465B001344DB000B4424330022AD
S2140004001A600C49039A13465B001344DB000B4446
S2140004102C33089A1A60049B83F3118800230593F3
S21400042002E04FF0FF330593059B184607B05DF8D2
S21400043004FB00BFAC11002000B587B0039002910A
S214000440019200932F4B1B78002B01D1FFF7BCFEC7
S2140004502C4B5B691A46039B93424BD2EFF31183F6
S2140004604FF0200181F311880493039B002B31D0B9
S2140004702449039A13465B001344DB000B446033A5
S214000480029A1A601F49039A13465B001344DB0066
S2140004900B446433019A1A601A49039A13465B00A8
S2140004A01344DB000B446833009A1A601549039A1C
S2140004B013465B001344DB000B44703300221A60C3
S2140004C01049039A13465B001344DB000B446C335D
S2140004D000221A600B49039A13465B001344DB00A4
S2140004E00B447433089A1A60049B83F31188002324
S2140004F0059302E04FF0FF330593059B184607B0BF
S2140005005DF804FBAC110020F0B400EB4003DFF80C
S214000510800000EBC30000F118063069F7687568C4
S21400052087422ED3B368DC1B631E934212D37D1919
S214000530D01900BF11F8013B05F8013B013A05D080
S21400054011F8013B05F8013B013AF3D1F0600120B8
S214000550F0BC7047C018904217D37819121B11F8D8
S214000560013B00F8013B013CF9D1141C05D011F801
S214000570013B05F8013B013AF9D1F4600120F0BCDB
S2140005807047C01B01389042D1D20020F0BC7047A3
S214000590AC11002086B003900291019200230493D0
S2140005A002E0049B01330493029A049B13441B78D5
S2140005B0002BF6D1049A019B9A4201D9019B049321
S2140005C0049BFE2B06D8039B5A1C0392049AD2B2B5
S2140005D01A7011E0039B5A1C0392FF221A70039BA9
S2140005E05A1C0392049AD2B21A70049B190A039BEF
S2140005F05A1C0392CAB21A70002305930AE0029AA4
S214000600531C0293039B591C039112781A70059B86
S21400061001330593059A049B9A42F0D3039B184630
S21400062006B0704782B00190019B0433184602B0B2
S2140006307047000000B583B00DF103030122194690
S2140006400120FFF70FFE03460193019B002B50DDB0
S2140006509DF80330072B15DC002B3DDD013B062BF8
S2140006603AD801A252F823F08B060000910600004B
S214000670970600009D060000A3060000A9060000DD
S214000680AF060000802B15D026E000F073FA35E0A8
S21400069000F026FB32E000F0F9FC2FE000F0C2FC90
S2140006A02CE000F041FB29E000F054FF26E000F0CB
S2140006B035FF23E00DF10303012219460120FFF761
S2140006C0D1FD03460193019B002B14DD9DF80330FA
S2140006D0184600F0A1FE0EE09DF803305BB2002B3A
S2140006E00BDA0DF10303012219460120FFF7BAFDCC
S2140006F003E000BF02E000BF00E000BF00BF03B0A1
S2140007005DF804FB00B58DB001238DF8043001AB15
S21400071001330793079B0B93304B5B690A930BE0FF
S2140007200A9BDAB20B9B591C0B9162F07F02D2B285
S2140007301A700A9BDB090A930A9B7F2BF0D80B9B47
S2140007405A1C0B920A9AD2B21A700B9B0793244B30
S2140007501B680693214BDB68069AD31A0593079B02
S2140007600993059B08930BE0089BDAB2099B591C7A
S214000770099162F07F02D2B21A70089BDB090893D7
S214000780089B7F2BF0D8099B5A1C0992089AD2B274
S2140007901A70099B079301AB079AD31A1A4601AB46
S2140007A019460120FFF7B0FE03460493049B002B76
S2140007B009D00A4A069BD360084B1B78013BDAB285
S2140007C0064B1A7004E0054B5B690133034A53611C
S2140007D0049B18460DB05DF804FB00BFEC540020E7
S2140007E0041000E000B58BB0039002910192634BB9
S2140007F01B78012B10D0614B1B78002B00F0A180DA
S2140008005E4B1B78022B09D1FFF77CFF5B4B1B78F6
S214000810012B40F0988001E000BF00E000BF019B84
S2140008201F2B09D8554BDA69019B22FA03F303F014
S2140008300103002B40F08980019B172B07D8039BF0
S214000840013B0393019BDAB2039B1A703DE0029AC8
S214000850039BD31A0793079B7F2B12D9079BDA09B2
S214000860039B013B0393D2B2039B1A70079BDBB238
S214000870039A013A039263F07F03DAB2039B1A707D
S21400088006E0039B013B0393079BDAB2039B1A70B7
S214000890019B7F2B12D9019BDA09039B013B039333
S2140008A0D2B2039B1A70019BDBB2039A013A039201
S2140008B063F07F03DAB2039B1A7006E0039B013BEA
S2140008C00393019BDAB2039B1A702D4B1B680693A9
S2140008D02A4BDB68069AD31A0593029B0993059B5D
S2140008E008930BE0089BDAB2099B591C099162F049
S2140008F07F02D2B21A70089BDB090893089B7F2BF5
S214000900F0D8099B5A1C0992089AD2B21A70099B11
S2140009100293029A039BD31A1A4603990120FFF703
S214000920F3FD03460493049B002B03D0134A069B57
S214000930D3600BE0114B1B780133DAB20F4B1A7001
S21400094004E000BF02E000BF00E000BF0D4BD3F89C
S21400095084200C4BD3F888309A420BD0074B9B78F8
S214000960002B07D1054B01229A70FFF763FE034B5D
S21400097000229A7000BF0BB05DF804FBEC54002018
S214000980041000E0AC11002000B587B0059004917B
S21400099003920293002300934FF47A53134A1449A8
S2140009A00120FFF7DFFC002300930823114A1049BB
S2140009B00120FFF741FD104B4FF080521A610F4B9C
S2140009C01B680D4AD3600C4A039B13620A4A059BB8
S2140009D05360094A049B9360074A029B5362064B86
S2140009E000221A7000BF07B05DF804FB64160020F2
S2140009F054F70000E4540020EC540020041000E0FB
S214000A0082B00190024A019B136100BF02B070479A
S214000A10EC54002000B585B00190EFF311834FF041
S214000A20200181F3118803930748FFF7FBFD02902E
S214000A30019A02990298FFF7D5FE039B83F311886B
S214000A4000BF05B05DF804FB1C55002000B589B05A
S214000A5001900091EFF311834FF0200181F311888C
S214000A6005931748FFF7DEFD0490049B0393039B52
S214000A700793009B06930BE0069BDAB2079B591C74
S214000A80079162F07F02D2B21A70069BDB090693CA
S214000A90069B7F2BF0D8079B5A1C0792069AD2B269
S214000AA01A70079B0393019A03990498FFF79AFE1E
S214000AB0059B83F3118800BF09B05DF804FB00BFF7
S214000AC01C55002000B58DB0039002910192EFF303
S214000AD011834FF0200181F3118807932448FFF714
S214000AE0A1FD0690069B0593059B0B93029B0A931C
S214000AF00BE00A9BDAB20B9B591C0B9162F07F024B
S214000B00D2B21A700A9BDB090A930A9B7F2BF0D895
S214000B100B9B5A1C0B920A9AD2B21A700B9B059327
S214000B20059B0993019B08930BE0089BDAB2099B8F
S214000B30591C099162F07F02D2B21A70089BDB0939
S214000B400893089B7F2BF0D8099B5A1C0992089A99
S214000B50D2B21A70099B0593039A05990698FFF777
S214000B6041FE079B83F3118800BF0DB05DF804FBC0
S214000B701C55002000B58DB0564B01221A70EFF3BD
S214000B8011834FF0200181F3118803930A22524902
S214000B900120FFF7B9FC039B83F311880A20FFF7B7
S214000BA039FFEFF311834FF0200181F31188029390
S214000BB04A48FFF737FD0190019B0093009B0B937B
S214000BC0444B5B680A930BE00A9BDAB20B9B591CFA
S214000BD00B9162F07F02D2B21A700A9BDB090A936D
S214000BE00A9B7F2BF0D80B9B5A1C0B920A9AD2B208
S214000BF01A700B9B0093009B0993364B9B680893D7
S214000C000BE0089BDAB2099B591C099162F07F023F
S214000C10D2B21A70089BDB090893089B7F2BF0D88A
S214000C20099B5A1C0992089AD2B21A70099B009323
S214000C30009B0793274B1B6906930BE0069BDAB2D3
S214000C40079B591C079162F07F02D2B21A70069B6E
S214000C50DB090693069B7F2BF0D8079B5A1C07924E
S214000C60069AD2B21A70079B0093009B0593022344
S214000C7004930BE0049BDAB2059B591C059162F0C5
S214000C807F02D2B21A70049BDB090493049B7F2B6D
S214000C90F0D8059B5A1C0592049AD2B21A70059B8E
S214000CA00093182200990198FFF79CFD029B83F39E
S214000CB01188084B5B6A002B02D0064B5B6A98478C
S214000CC000F0E4F900F0AEF900F044FC00BF0DB00F
S214000CD05DF804FBEC54002048F700001C5500208B
S214000CE000B583B0EFF311834FF0200181F3118834
S214000CF001930B48FFF796FC00900A4B1B78002BDD
S214000D0007D00B2200990098FFF76CFD054B0022D8
S214000D101A70019B83F3118800BF03B05DF804FBD3
S214000D201C550020EC54002000B58DB0EFF3118365
S214000D304FF0200181F3118803934648FFF772FCB9
S214000D400290029B0193019B0B93434B5B680A93B3
S214000D500BE00A9BDAB20B9B591C0B9162F07F02E8
S214000D60D2B21A700A9BDB090A930A9B7F2BF0D833
S214000D700B9B5A1C0B920A9AD2B21A700B9B0193C9
S214000D80019B0993344B9B6808930BE0089BDAB2EF
S214000D90099B591C099162F07F02D2B21A70089B17
S214000DA0DB090893089B7F2BF0D8099B5A1C0992F5
S214000DB0089AD2B21A70099B0193019B0793264B9F
S214000DC01B6906930BE0069BDAB2079B591C07913A
S214000DD062F07F02D2B21A70069BDB090693069B6E
S214000DE07F2BF0D8079B5A1C0792069AD2B21A702D
S214000DF0079B0193019B0593022304930BE0049B3E
S214000E00DAB2059B591C059162F07F02D2B21A70C5
S214000E10049BDB090493049B7F2BF0D8059B5A1C8C
S214000E200592049AD2B21A70059B01931822019972
S214000E300298FFF7D7FC039B83F31188064B5B6A87
S214000E40002B02D0044B5B6A984700BF0DB05DF8DC
S214000E5004FB00BF1C550020EC54002000B593B0E6
S214000E600190EFF311834FF0200181F31188059371
S214000E706A48FFF7D7FB0490049B0393039B1193E8
S214000E80019B1A68664B1B69D31A9B0810930BE0EC
S214000E90109BDAB2119B591C119162F07F02D2B2FC
S214000EA01A70109BDB091093109B7F2BF0D8119BB8
S214000EB05A1C1192109AD2B21A70119B0393039B7C
S214000EC00F93019B9B680E930BE00E9BDAB20F9B71
S214000ED0591C0F9162F07F02D2B21A700E9BDB098A
S214000EE00E930E9B7F2BF0D80F9B5A1C0F920E9AD8
S214000EF0D2B21A700F9B0393019B5B68202219469F
S214000F000398FFF747FB0390092203990498FFF71D
S214000F1069FC049B0393039B0D93019B1A68404B4B
S214000F201B69D31A9B080C930BE00C9BDAB20D9B43
S214000F30591C0D9162F07F02D2B21A700C9BDB092D
S214000F400C930C9B7F2BF0D80D9B5A1C0D920C9A81
S214000F50D2B21A700D9B0393039B0B93019BDB6825
S214000F600A930BE00A9BDAB20B9B591C0B9162F0BA
S214000F707F02D2B21A700A9BDB090A930A9B7F2B68
S214000F80F0D80B9B5A1C0B920A9AD2B21A700B9B83
S214000F900393039B0993019B1B6908930BE0089B33
S214000FA0DAB2099B591C099162F07F02D2B21A701C
S214000FB0089BDB090893089B7F2BF0D8099B5A1CDB
S214000FC00992089AD2B21A70099B0393039B07935F
S214000FD0002306930BE0069BDAB2079B591C079189
S214000FE062F07F02D2B21A70069BDB090693069B5C
S214000FF07F2BF0D8079B5A1C0792069AD2B21A701B
S214001000079B0393152203990498FFF7EBFB059BB8
S21400101083F3118800BF13B05DF804FB1C55002055
S214001020EC54002008B5074B1B6A002B08D0054B74
S2140010301B6A5B68002B03D0024B1B6A5B689847F1
S21400104000BF08BDEC54002000B587B00190EFF358
S21400105011834FF0200181F3118805930A48FFF7AA
S214001060E1FA0490802201990498FFF793FA03901E
S2140010700E2203990498FFF7B5FB059B83F31188AE
S21400108000BF07B05DF804FB1C55002010B582B009
S214001090144B1B6A002B1AD0124B1B6A1B68002BC2
S2140010A015D0104B1B6A1B689847CDE90001009CC1
S2140010B0DDE900014FF000024FF000030A000023B4
S2140010C013461A4621460D20FFF7FCFC06E0064BA9
S2140010D01B6819460C20FFF7B9FC00BF00BF02B022
S2140010E010BD00BFEC540020041000E000B583B033
S2140010F0EFF311834FF0200181F311880193084824
S214001100FFF790FA0090112200990098FFF76AFB0B
S214001110019B83F3118800BF03B05DF804FB00BF9A
S2140011201C55002000B589B00190EFF311834FF0F5
S214001130200181F3118805931948FFF773FA04908C
S214001140049B0393174B1B69019AD31A9B080193C0
S214001150039B0793019B06930BE0069BDAB2079B63
S214001160591C079162F07F02D2B21A70069BDB0907
S2140011700693069B7F2BF0D8079B5A1C0792069A6D
S214001180D2B21A70079B0393082203990498FFF7BC
S21400119029FB059B83F3118800BF09B05DF804FBAB
S2140011A01C550020EC54002000B589B00190EFF3E8
S2140011B011834FF0200181F3118805931948FFF73A
S2140011C031FA0490049B0393174B1B69019AD31AB8
S2140011D09B080193039B0793019B06930BE0069BDA
S2140011E0DAB2079B591C079162F07F02D2B21A70DE
S2140011F0069BDB090693069B7F2BF0D8079B5A1CA1
S2140012000792069AD2B21A70079B03930422039998
S2140012100498FFF7E7FA059B83F3118800BF09B02F
S2140012205DF804FB1C550020EC54002000B589B086
S2140012300190EFF311834FF0200181F3118805939D
S2140012401948FFF7EFF90490049B0393174B1B69AB
S214001250019AD31A9B080193039B0793019B06935D
S2140012600BE0069BDAB2079B591C079162F07F02DF
S214001270D2B21A70069BDB090693069B7F2BF0D82A
S214001280079B5A1C0792069AD2B21A70079B0393C2
S214001290062203990498FFF7A5FA059B83F31188A5
S2140012A000BF09B05DF804FB1C550020EC5400207C
S2140012B000B58BB001900091EFF311834FF0200141
S2140012C081F3118805932848FFF7ACF90490049B36
S2140012D00393264B1B69019AD31A9B080193039B21
S2140012E00993019B08930BE0089BDAB2099B591CF3
S2140012F0099162F07F02D2B21A70089BDB0908934C
S214001300089B7F2BF0D8099B5A1C0992089AD2B2E8
S2140013101A70099B0393039B0793009B06930BE0AD
S214001320069BDAB2079B591C079162F07F02D2B285
S2140013301A70069BDB090693069B7F2BF0D8079B4B
S2140013405A1C0792069AD2B21A70079B039307227A
S21400135003990498FFF746FA059B83F3118800BFAC
S2140013600BB05DF804FB00BF1C550020EC540020B9
S21400137000B589B001900091EFF311834FF0200182
S21400138081F3118805931C48FFF74CF90490049BE1
S2140013900393039B0793194B1B69019AD31A9B0867
S2140013A006930BE0069BDAB2079B591C079162F086
S2140013B07F02D2B21A70069BDB090693069B7F2B30
S2140013C0F0D8079B5A1C0792069AD2B21A70079B4F
S2140013D00393802200990398FFF7DCF80390192204
S2140013E003990498FFF7FEF9059B83F3118800BF65
S2140013F009B05DF804FB00BF1C550020EC5400202B
S21400140082B00190034B1B69019AD31A9B081846B9
S21400141002B07047EC54002000B58DB003468DF83E
S21400142007303C4B1B68002B6FD03A4B1B680B9366
S21400143000230A9308E00B9B1B690B930B9B002B66
S21400144008D00A9B01330A939DF807300A9A9A42FD
S214001450F1D300E000BF0B9B002B56D0EFF31183B7
S2140014604FF0200181F3118805932B48FFF7DAF837
S2140014700490049B0393039B09939DF807300893FD
S2140014800BE0089BDAB2099B591C099162F07F02B7
S214001490D2B21A70089BDB090893089B7F2BF0D802
S2140014A0099B5A1C0992089AD2B21A70099B039398
S2140014B0039B07930B9B9B6806930BE0069BDAB295
S2140014C0079B591C079162F07F02D2B21A70069BE6
S2140014D0DB090693069B7F2BF0D8079B5A1C0792C6
S2140014E0069AD2B21A70079B03930B9B1B68802246
S2140014F019460398FFF74EF80390162203990498AE
S214001500FFF770F9059B83F3118800BF0DB05DF8F7
S21400151004FB00BF145500201C55002000B583B006
S2140015200B4B1B68002B0FD0094B1B680193019BCC
S214001530DB68002B02D0019BDB689847019B1B6988
S2140015400193019B002BF2D100BF03B05DF804FBB2
S2140015501455002000B587B0EFF311834FF020013B
S21400156081F3118803931748FFF75CF80290029BFB
S2140015700193019B0593144B1B7804930BE0049B8B
S214001580DAB2059B591C059162F07F02D2B21A703E
S214001590049BDB090493049B7F2BF0D8059B5A1C05
S2140015A00592049AD2B21A70059B01931B220199E8
S2140015B00298FFF717F9039B83F3118800BF07B063
S2140015C05DF804FB1C5500201855002000B58BB0B4
S2140015D00190EFF311834FF0200181F311880593FA
S2140015E02648FFF71FF80490802201990498FEF71A
S2140015F0D1FF0390039B0993012308930BE0089BFC
S214001600DAB2099B591C099162F07F02D2B21A70B5
S214001610089BDB090893089B7F2BF0D8099B5A1C74
S2140016200992089AD2B21A70099B0393039B0793F8
S214001630002306930BE0069BDAB2079B591C079122
S21400164062F07F02D2B21A70069BDB090693069BF5
S2140016507F2BF0D8079B5A1C0792069AD2B21A70B4
S214001660079B03931A2203990498FFF7BBF8059B80
S21400167083F3118800BF0BB05DF804FB1C550020F7
S21400168008B50548FFF7E0FC0448FFF7DDFC00F06E
S2140016906FF900BF08BD00BF5CF7000090F70000C0
S2140016A000B583B000F0FAFC019000F0F7FC009063
S2140016B0064B074A00990198FFF766F94FF000506D
S2140016C0FFF79EF900BF03B05DF804FB811600002B
S2140016D048F8000070B584B00023039334E01F4937
S2140016E0039A13469B0013449B000B4418681B493F
S2140016F0039A13469B0013449B000B44043319685B
S214001700164C039A13469B0013449B00234408334D
S2140017101C68124D039A13469B0013449B002B44EF
S2140017200C331B681E460D4D039A13469B0013444C
S2140017309B002B4410331B6800933346224600F070
S214001740B1F8039B01330393054B1B68039A9A4237
S214001750C5D300BF00BF04B070BD00BF0056002058
S214001760005B002000B585B003F034FF03900398BB
S21400177008F0D2FACDE90001DDE90023104619464B
S21400178005B05DF804FB00B583B0019004F056FC8C
S2140017900346002B02D10198FFF748FD00BF03B0B7
S2140017A05DF804FB00B583B0019004F047FC0346E7
S2140017B0002B02D10198FFF7F7FC00BF03B05DF8DD
S2140017C004FB00B583B0019004F038FC0346002B00
S2140017D003D104210198FFF76BFD00BF03B05DF84D
S2140017E004FB000000B587B00590049103920293B5
S2140017F004F024FC0346002B4BD1274B1B683F2BE1
S21400180003D92648FFF7E2FE43E0234B1A68244933
S21400181013469B0013449B000B44059A1A601E4B0C
S2140018201A681F4913469B0013449B000B4404335D
S214001830049A1A60184B1A68194913469B001344F9
S2140018409B000B440833039A1A60134B1A6814491A
S21400185013469B0013449B000B440C33029A1A60F9
S2140018600D4B1A680E4913469B0013449B000B440D
S2140018701033089A1A60084B1B680133064A136037
S214001880029A089B00931346039A0499059800F061
S21400189009F807B05DF804FB005B0020A4F7000021
S2140018A00056002000B58BB0039002910192009381
S2140018B005AB1422002118460DF03EFB039B059352
S2140018C0029B0693019B0793009B08930C9B09932E
S2140018D005AB1846FFF7C2FA00BF0BB05DF804FB75
S2140018E000B585B003900291019201990298FFF726
S2140018F03FFD0298FFF784FD034619460398FFF75D
S214001900A5F8184B1B68FF2B03D91748FFF75EFE98
S21400191024E0144B1A68154913465B0013449B00D9
S2140019200B44029A1A600F4B1A68104913465B0064
S21400193013449B000B440433019A1A60094B1A683F
S2140019400A4913465B0013449B000B4408330022ED
S2140019501A60044B1B680133024A136005B05DF839
S21400196004FB00BF04670020F4F70000045B0020BF
S21400197000B583B0002301932BE01B49019A134660
S2140019805B0013449B000B4408331B68002B1DD1DF
S2140019901549019A13465B0013449B000B441868D4
S2140019A01149019A13465B0013449B000B44043311
S2140019B01B681946FFF7DCFC0B49019A13465B00CF
S2140019C013449B000B44083301221A60019B013329
S2140019D00193064B1B68019A9A42CED300BF00BF04
S2140019E003B05DF804FB00BF045B00200467002022
S2140019F008B5012304220F21032003F007FA002371
S214001A00184608BD30B58DB0039002911346ADF868
S214001A100630224B05AC1D460FCD0FC495E80300DB
S214001A2084E80300039B1B680B9301211C4800F00D
S214001A3091FF039B5B680121184600F08BFF039B18
S214001A40187B039B5B7B19460023042203F0DEF918
S214001A50039B187A039B5B7A19460023042203F043
S214001A60D5F9029B0793BDF80630ADF8243005ABD8
S214001A7019460B9803F09EFB039B9B7B1A02039B65
S214001A801B7C1B0613431A460B9B9A670B9B0A226A
S214001A905A67002318460DB030BD00BF50F800004E
S214001AA000350A0000B589B0039002910192029BAE
S214001AB00693039B1B680593002307930AE0069A88
S214001AC0079B13441B781946059803F065FC079B93
S214001AD001330793079A019B9A42F0D300231846D6
S214001AE009B05DF804FB84B00190019B1B6803936A
S214001AF000BF039B1B6903F02003002BF9D000BF37
S214001B0000BF04B0704784B001900091019B03F1C0
S214001B10C0630393039B009A1A6000BF04B070472B
S214001B2084B001900091019B03F180630393039BB3
S214001B30009A1A6000BF04B07047000000B583B07A
S214001B40034600918DF807309DF80730002B42D0F1
S214001B509DF80730012B3BD09DF80730022B34D080
S214001B609DF80730032B2DD09DF80730042B27D087
S214001B709DF80730052B20D09DF80730062B1AD08D
S214001B809DF80730072B14D09DF80730082B0ED091
S214001B909DF80730092B07D09DF807300A2B01D196
S214001BA007231AE0002318E04FF4404315E00F2304
S214001BB013E0002311E000230FE04FF6FF730CE064
S214001BC000230AE04FF47F4307E040F6FF7304E08B
S214001BD04FF6C07301E040F2FF33009AD34003F0A3
S214001BE00103002B04D14FF479710D4800F0F0FB8F
S214001BF09DF8072013465B0013441B010C3303F1CA
S214001C00804303F520430121009A01FA02F21146AF
S214001C101846FFF785FF00BF03B05DF804FB00BF62
S214001C2068F8000000B583B0034600918DF80730D1
S214001C309DF80730002B42D09DF80730012B3BD093
S214001C409DF80730022B34D09DF80730032B2DD09B
S214001C509DF80730042B27D09DF80730052B20D0A1
S214001C609DF80730062B1AD09DF80730072B14D0A6
S214001C709DF80730082B0ED09DF80730092B07D0AB
S214001C809DF807300A2B01D107231AE0002318E03D
S214001C904FF4404315E00F2313E0002311E0002328
S214001CA00FE04FF6FF730CE000230AE04FF47F438B
S214001CB007E040F6FF7304E04FF6C07301E040F221
S214001CC0FF33009AD34003F00103002B04D140F207
S214001CD013410D4800F07CFB9DF8072013465B007F
S214001CE013441B010C3303F1804303F52043012109
S214001CF0009A01FA02F211461846FFF704FF00BFE9
S214001D0003B05DF804FB00BF68F8000000B583B0C0
S214001D10034600918DF807309DF80730002B42D01F
S214001D209DF80730012B3BD09DF80730022B34D0AE
S214001D309DF80730032B2DD09DF80730042B27D0B5
S214001D409DF80730052B20D09DF80730062B1AD0BB
S214001D509DF80730072B14D09DF80730082B0ED0BF
S214001D609DF80730092B07D09DF807300A2B01D1C4
S214001D7007231AE0002318E04FF4404315E00F2332
S214001D8013E0002311E000230FE04FF6FF730CE092
S214001D9000230AE04FF47F4307E040F6FF7304E0B9
S214001DA04FF6C07301E040F2FF33009AD34003F0D1
S214001DB00103002B04D140F22E410A4800F008FB34
S214001DC009489DF807200121009B994013465B00B7
S214001DD013441B0103441833196000BF03B05DF8B9
S214001DE004FB00BF68F8000000A0004010B582B0F9
S214001DF001900121144800F0ADFD019B9B68002274
S214001E0019461248FFF7FEFD002304220E21032088
S214001E1002F0FCFF002304220D21032002F0F6FF4F
S214001E200B4A019B14460FCB84E80F00094B012296
S214001E301A700121019800F00FF8019800F03AF8A6
S214001E400023184602B010BD00350A00001000201E
S214001E50246700203467002000B587B003900B4647
S214001E608DF80B30002305939DF80B30002B14D013
S214001E7009F076FE0490039B1B7B5B001A46049BCE
S214001E80B3FBF2F101230193002300930023074ADA
S214001E90074809F066FD059003E0054809F082FD55
S214001EA00590059B184607B05DF804FB152000005A
S214001EB00867002000B585B001900E210320FFF7CB
S214001EC0B1FE019B5B7B18460AF0FCFA0423ADF8D2
S214001ED00E300DF10E03022219460A48FFF7E2FD06
S214001EE00848FFF700FE019B9B7B18460AF0EAFABB
S214001EF00E210320FFF722FE0023184605B05DF8EA
S214001F0004FB00BF0010002000B589B003900291CA
S214001F1001920093029B0693039B1B881A46039B21
S214001F201B7902FB03F3002B00DA0733DB10059363
S214001F30019B013301930E210320FFF773FE039BE1
S214001F405B7B18460AF0BEFA019B9BB21B029BB253
S214001F5043F001039BB2ADF812300DF112030222DA
S214001F6019462448FFF79EFD002307932CE0059BA7
S214001F701A4606991F48FFF795FD059B069A1344D7
S214001F800693009B013B079A9A4204D14FF6FF73D3
S214001F90ADF812300EE0019B9AB2079B9BB2134439
S214001FA09BB201339BB21B029BB243F0FF039BB272
S214001FB0ADF812300DF11203022219460D48FFF754
S214001FC071FD079B01330793079A009B9A42CED375
S214001FD00848FFF788FD039B9B7B18460AF072FAB9
S214001FE00E210320FFF7AAFD0023184609B05DF86E
S214001FF004FB00BF00100020044B1B78002B01D010
S214002000034B00E000231846704700BF34670020EB
S2140020102467002000B583B0019000910D210320B5
S214002020FFF774FE00BF03B05DF804FB10B584B084
S214002030064B6C460FCB84E80F006B461846FFF73E
S214002040D5FE0346184604B010BD00BFE0F80000F9
S21400205000B585B000F08AF80C4B03930C4B029346
S2140020600B4B01930B4B00930AE0039A131D03934B
S214002070029B191D029112681A60019B043301939A
S214002080019A009B9A42F0D3FEF764F8F010010024
S2140020900010002090110020FEE7000000B583B07D
S2140020A000F020F801900A4BD3F808311B0AC3F35E
S2140020B008030093009B0133019AB2FBF3F30193EC
S2140020C0044A019B1360019B184603B05DF804FBAD
S2140020D000400E401C100020014B1846704700BF01
S2140020E0005A620282B01A4BD3F8943003F007030A
S2140020F0023B032B1BD801A252F823F01D2100003F
S214002100152100000D21000025210000114B1B6841
S214002110019310E04FF4004301930CE00E4B1B6854
S214002120019308E00D4B1B685B08019303E00B4B23
S2140021301B68019300BF064BD3F800311B0A03F05F
S2140021401F030133019AB2FBF3F3184602B070473F
S21400215000400E4018100020141000202010002010
S214002160014B1B681846704714100020064B074AA0
S2140021709A60054BD3F88830034A43F47003C2F8DC
S214002180883000BF704700BF00ED00E00000000090
S2140021904FF40043184670474FF47A73184670475A
S2140021A0014B1B68184670471810002084B0019039
S2140021B00B4B1A68019B13440A4A934202D94FF00C
S2140021C0FF3309E0064B1B680393054B1A68019B17
S2140021D01344034A1360039B184604B0704700BFBD
S2140021E0241000200000042000B587B00390029160
S2140021F00192029B1F2B03D991210A4800F0E8F8B0
S214002200039B03F1424303F58013DA00029B134459
S2140022109B000593059B019A1A6000BF07B05DF806
S21400222004FB00BFF0F8000000B587B003900291F1
S214002230019201F0CBFB0590039B1A68029BDB43DF
S2140022401A400199029B0B401A43039B1A6005989B
S21400225001F0C8FB00BF07B05DF804FB00B583B013
S21400226001900091019BB3F1804F07D0019B274A54
S214002270934203D0A221264800F0AAF8009B1B69CF
S2140022803F2B03D9B621224800F0A2F8009BDB685A
S2140022903F2B03D9B7211E4800F09AF8009B5B68D5
S2140022A03F2B03D9B8211A4800F092F8009B1B7800
S2140022B0DB071A46009B5B681B06134343F4004289
S2140022C0019B1A60009BDB681B04009A127A1A4373
S2140022D0019B9A62009B1B691B04009A527A1A4360
S2140022E0019BDA62009B9B7A1B0743F0806343F4F2
S2140022F07D43019A53600198009B1B7D1A4600217E
S214002300FFF772FF00BF03B05DF804FB0004004057
S21400231068F9000000B583B001900B468DF80330D5
S214002320019BB3F1804F07D0019B094A934203D02B
S214002330F521084800F04CF8019B04339DF8032073
S214002340FF211846FFF770FF00BF03B05DF804FBDF
S2140023500004004068F9000000B583B00190019BBE
S214002360B3F1804F08D0019B084A934204D040F254
S2140023701B11074800F02CF8019B1B6823F0010294
S214002380019B1A6000BF03B05DF804FB0004004028
S21400239068F9000000B583B00190019BB3F1804F4F
S2140023A008D0019B084A934204D04FF49C7107481A
S2140023B000F00EF8019B1B6843F00102019B1A60B7
S2140023C000BF03B05DF804FB0004004068F900009D
S2140023D082B001900091FEE700B583B00190019BAA
S2140023E01F2B04D940F22F110548FFF7F1FF0122F9
S2140023F0019B02FA03F3184603B05DF804FB00BF26
S21400240098F9000000B587B0039002910192029BF4
S2140024101F2B03D991210A48FFF7DAFF039B03F12C
S214002420424303F58013DA00029B13449B00059396
S214002430059B019A1A6000BF07B05DF804FB00BF59
S21400244014FA000084B001900091019B03F142430E
S21400245003F58013DA00009B13449B000393039B51
S2140024601B68184604B07047054B1B6803F0400312
S214002470002B01D1012300E000231846704700BF5F
S2140024803C300E4008B5FFF7EFFF034683F001032C
S214002490DBB2002B08D100BF12210448FFF7D2FFA1
S2140024A00346002BF8D100E000BF08BD04300E4004
S2140024B008B5FFF7E7FF044B5B681B0C03F003034C
S2140024C0DBB2184608BD00BF00300E4000B585B030
S2140024D0019001230393019B124A934204D80023E0
S2140024E003930023029308E0019B0F4A934202D80D
S2140024F00123029301E002230293039A10210B4862
S214002500FFF780FF094BD3F8003123F08072029B5F
S2140025101B0606491343C1F8003100BF05B05DF83D
S21400252004FB00BF0048E8010090D00300400E40C6
S21400253082B0034B1B680193019B184602B070479C
S2140025402810002000B583B0FFF7CCFD0190074BA4
S214002550D3F800311B0A03F01F030133019A02FB74
S21400256003F3184603B05DF804FB00BF00400E40BE
S21400257000B583B0104800F081FC03468DF80330A8
S2140025809DF80330072B05D0092B07D1FFF7AAFDCE
S21400259001900BE0FFF7CCFF019007E000230193CA
S2140025A041F2FC210548FFF713FF00BF019B1846C8
S2140025B003B05DF804FB00BF06000E0004FB00003D
S2140025C000B585B00190019B002B1FD1214800F07B
S2140025D055FC03468DF80B3000BF9DF80B30013BD1
S2140025E0072B29D801A252F823F000BF1B260000B3
S2140025F0392600003926000029260000392600006A
S21400260039260000212600003126000041F21C3148
S2140026101148FFF7DDFE002317E00023039313E0C5
S214002620FFF786FF03900FE0FFF79AFD03900BE09D
S214002630FFF788FF039007E00023039341F233314E
S2140026400548FFF7C5FE00BF039B184605B05DF8BA
S21400265004FB00BFB800320004FB000000B585B0E4
S214002660019000911F4B5B6803F0407303930023B7
S214002670029312E01C4A029BDB0013441A79009B6B
S214002680DBB29A4206D1184A029B52F83330019ABE
S2140026909A4206D9029B01330293029B042BE9D986
S2140026A000E000BF029B052B07D10323039341F2F2
S2140026B03A410E48FFF78CFE05E00B4A029BDB0012
S2140026C013445B790393039B1B060393054B5B68DC
S2140026D023F040720349039B13434B6000BF05B0D1
S2140026E05DF804FB00000E407CFB000004FB0000CD
S2140026F000B583B00E4B1B6C002B14BF01230023C8
S2140027008DF807300A4B41F671321A64FFF7E4FC85
S214002710034600211846FFF7A1FF9DF80730002B5F
S21400272002D0034B00221A6400BF03B05DF804FB1E
S21400273000000E4000B585B0019000910D4B1B6C5B
S214002740002B14BF012300238DF80F30094B41F6F0
S21400275071321A6400990198FFF780FF9DF80F30D8
S214002760002B02D0034B00221A6400BF05B05DF8B0
S21400277004FB00BF00000E4086B001900F230593B7
S214002780019B03330493059B0393039A049B934294
S21400279028BF13460293029B1B070293029B184610
S2140027A006B07047034B5B6A1B0903F00303184629
S2140027B0704700BF00400E4082B00190054B5B6A38
S2140027C023F03002019B1B01024913434B6200BFFA
S2140027D002B0704700400E4010B584B00190002350
S2140027E00293019B424A934211D0019B404A934276
S2140027F007D8019B3F4A934209D0019B3E4A934229
S21400280005D041F23A513D48FFF7E2FD00E000BF37
S214002810019800F033FB03460393019B344A93422E
S2140028201AD0019B324A93421DD8019B314A9342EB
S21400283004D0019B304A934207D014E0304BD3F8C3
S214002840803003F00703039313E02D4BD3F8843056
S21400285003F0070303930CE0294BD3F8883003F00A
S2140028600703039305E041F269512448FFF7B0FDE2
S21400287000BF039B042B2ED801A252F823F000BF02
S214002880D1280000952800009D280000AD280000F3
S214002890A5280000FFF77CFC029024E0FFF780FCF0
S2140028A0029020E0FFF778FC02901CE0FFF71AFC8D
S2140028B00446134BD3F800311B0E03F0010301331B
S2140028C01846FFF789FD0346B4FBF3F302930AE0CC
S2140028D00023029307E00023029341F2BB5107480E
S2140028E0FFF776FD00BF029B184604B010BD00BF80
S2140028F00500240002001E000300200004FB000068
S21400290000400E4082B00190094BD3F8443103F0EA
S2140029100103002B08D100BF054BD3F84021019BD3
S2140029201340002BF8D100E000BF02B0704700BF94
S21400293000400E4000BF704700BF704700B583B030
S2140029400190019800F0BAF903460133184603B027
S2140029505DF804FB00B587B001900B468DF8033098
S21400296000230493019B1B0A03F00F03013B092B72
S21400297032D801A252F823F0A1290000AD290000A8
S214002980D9290000D9290000A7290000B329000092
S214002990BD290000D9290000C7290000D32900005E
S2140029A01B4B05931EE01B4B05931BE01A4B059330
S2140029B018E01A4B05930123049313E0184B059374
S2140029C0102304930EE0174B05934FF480330493C3
S2140029D008E0154B059305E041F6D7111348FFF7BD
S2140029E0F7FC11E0019B1B0B03F01F030393049BF2
S2140029F0002B02D00498FFF785FF9DF803301A4697
S214002A0003990598FFF7FEFC07B05DF804FB00BFCE
S214002A1000400E40B0400E40C0400E40E0400E4029
S214002A20E8400E40F0400E4050410E4004FB0000CF
S214002A3010B584B00190019B03F47813B3F5781FAA
S214002A4000F01B81B3F5781F00F22281B3F5481F12
S214002A5000F00E81B3F5481F00F21A81B3F5401F4F
S214002A6000F0E580B3F5401F00F21281B3F5381F81
S214002A7000F0B680B3F5381F00F20A81B3F5101FD8
S214002A8000F0E980B3F5101F00F20281B3F5001FD5
S214002A9000F0B580B3F5001F00F2FA80B3F5F01F22
S214002AA079D0B3F5F01F00F2F380B3F5D01F00F035
S214002AB0AB80B3F5D01F00F2EB80B3F5B01F7DD02E
S214002AC0B3F5B01F00F2E480B3F5A01F68D0B3F5ED
S214002AD0A01F00F2DD80B3F5801F00F0C580B3F5BF
S214002AE0801F00F2D580B3F5602F00F0B980B3F5F3
S214002AF0602F00F2CD80B3F5402F3DD0B3F5402FC8
S214002B0000F2C680B3F5202F23D0B3F5202F00F2B5
S214002B10BF80B3F5802F0DD0B3F5802F00F2B880BC
S214002B20002B03D0B3F5003F17D0B1E0FFF7DAFA79
S214002B300390B5E0FFF7D6FA03905B4BD3F80C3161
S214002B401B0AC3F308030133039AB2FBF3F30393A0
S214002B50A6E0FFF7C7FA0390A2E0FFF7C3FA0390D8
S214002B60514BD3F808311B0AC3F308030133039A09
S214002B70B2FBF3F3039393E0FFF7B4FA03904A4BE8
S214002B80D3F814311B0A03F01F030133039AB2FB78
S214002B90F3F3039384E04548FFF71EFE03907FE0BF
S214002BA04348FFF719FE03903F4BD3F8303103F04C
S214002BB00303039A22FA03F3039371E03B48FFF7FB
S214002BC00BFE0390384BD3F8203103F00F03184662
S214002BD0FFF702FC0246039BB3FBF2F303935FE0AE
S214002BE03248FFF7F9FD03902F4BD3F820311B092D
S214002BF003F00303039A22FA03F3039350E02D48ED
S214002C00FFF7EAFD03904BE02A48FFF7E5FD039047
S214002C10254BD3F828311B0903F003031846FFF7AA
S214002C20DBFB0246039BB3FBF2F3039338E0214839
S214002C30FFF7D2FD03901C4BD3F828311B0A03F094
S214002C40030304331846FFF7C7FB0246039BB3FB98
S214002C50F2F3039324E01648FFF7BEFD03901FE04F
S214002C60FFF786FC03901BE0FFF762FC039017E07B
S214002C700020FFF7A5FC039012E0FFF733FA0446A6
S214002C800198FFF75BFE0346B4FBF3F3039307E0FC
S214002C900023039341F607310748FFF799FB00BF6F
S214002CA0039B184604B010BD00400E4002001E00F4
S214002CB0050024000300200004FB000000B585B0DA
S214002CC00190019B1B0903F00F030293029B013B3B
S214002CD0092B00F2B88001A252F823F0052D00005F
S214002CE0152D0000252D0000452D0000472E000064
S214002CF0472E0000552D0000652D0000BF2D00005A
S214002D001F2E0000564BD3F800311B0A03F01F039A
S214002D100393A0E0524BD3F814311B0A03F01F03B1
S214002D20039398E04E4BD3F800311B0E03F00103DB
S214002D300393039B01331846FFF74EFB0346013B04
S214002D40039388E0464BD3F80C311B0AC3F3080301
S214002D50039380E0424BD3F808311B0AC3F3080301
S214002D60039378E0019B3F4A934204D0019B3E4A7E
S214002D7093420DD01AE03A4BD3F8203103F00F03FC
S214002D8003930398FFF728FB0346013B039315E0E4
S214002D90334BD3F820311B0903F003030393039846
S214002DA0FFF71AFB0346013B039307E00023039358
S214002DB041F67B312D48FFF70BFB00BF4BE0019B34
S214002DC02B4A934204D0019B2A4A93420ED01DE020
S214002DD0234BD3F828311B0903F00303039303980E
S214002DE0FFF7FAFA0346013B039317E01C4BD3F8B0
S214002DF028311B0A03F003030393039B043318468E
S214002E00FFF7EAFA0346013B039307E00023039328
S214002E1041F69F311548FFF7DBFA00BF1BE0019B28
S214002E20154A934206D10E4BD3F8303103F0030314
S214002E30039307E00023039341F6AE310B48FFF7F8
S214002E40C7FA00BF07E00023039341F6D3310748D3
S214002E50FFF7BEFA00BF039B184605B05DF804FBFB
S214002E6000400E408006160080162E0004FB000070
S214002E7090171A0090273000A009140000B585B0FE
S214002E80019001238DF80F30019B03F00F0302938E
S214002E90029B013B072B00F2E78001A252F823F0C9
S214002EA0C12E0000232F0000612F000069300000B3
S214002EB0B32F0000F12F0000693000001B30000027
S214002EC0714BD3F8943003F00703023B052B23D84D
S214002ED001A252F823F000BF012F0000F92E0000D7
S214002EE0F12E0000092F0000192F0000112F0000FE
S214002EF002238DF80F3013E003238DF80F300FE018
S214002F0004238DF80F300BE00B238DF80F3007E00D
S214002F100C238DF80F3003E005238DF80F3000BF2B
S214002F20ABE0594BD3F8803003F00703042B0ED0E8
S214002F30042B10D8012B02D0022B04D00BE0032365
S214002F408DF80F300BE002238DF80F3007E00A23D0
S214002F508DF80F3003E001238DF80F3000BF8CE0B2
S214002F60494BD3F8843003F00703013B032B1BD8EF
S214002F7001A252F823F000BF892F0000912F000015
S214002F80A12F0000992F000003238DF80F300FE0CB
S214002F9002238DF80F300BE00A238DF80F3007E080
S214002FA006238DF80F3003E001238DF80F3000BFA5
S214002FB063E0354BD3F8883003F00703042B0ED0BC
S214002FC0042B10D8012B02D0022B04D00BE00323D5
S214002FD08DF80F300BE002238DF80F3007E00A2340
S214002FE08DF80F3003E001238DF80F3000BF44E06A
S214002FF0254B1B6F03F00103002B05D0012B07D1D7
S21400300009238DF80F3007E007238DF80F3003E013
S21400301001238DF80F3000BF2FE01B4BD3F85C3137
S21400302003F03003302B16D0302B18D8202B0ED0C0
S214003030202B14D8002B02D0102B04D00FE0012335
S2140030408DF80F300FE007238DF80F300BE00423C8
S2140030508DF80F3007E008238DF80F3003E00123CA
S2140030608DF80F3000BF08E000238DF80F3041F6D2
S21400307027710648FFF7ACF900BF9DF80F301846D9
S21400308005B05DF804FB00BF00400E4004FB0000E6
S21400309000B58BB001900B468DF8033003230993DF
S2140030A003238DF823300023069300230593019B0A
S2140030B0112B1BD19DF80330042B03D1FFF750F8DA
S2140030C005900CE09DF80330052B08D100F08CF934
S2140030D00346BD4A934202D900F086F90590059B47
S2140030E0002B03D00021059800F05AFD019B03F049
S2140030F00F030493049B013B072B00F25B8101A2A4
S21400310052F823F0253100002F320000653200000F
S214003110B53300004532000009330000B533000027
S214003120353300009DF80330023B0A2B48D801A235
S21400313052F823F0613100006D3100007931000053
S2140031408B310000C1310000C1310000C1310000E8
S214003150C1310000B53100009D310000A9310000EA
S2140031600423099300238DF823302FE003230993CB
S21400317001238DF8233029E00223099302238DF8DA
S21400318023309248FFF7A2F920E001230993032396
S2140031908DF823308D48FFF799F917E0052309933A
S2140031A003238DF8233011E00723099306238DF8B7
S2140031B023300BE041F6E8718548FFF709F9FFE098
S2140031C041F6ED718248FFF703F9F9E09DF82330E8
S2140031D0062B06D09DF8233001220121184600F068
S2140031E089F9FFF785FAFFF7A5FB059B002B01D0B1
S2140031F0FFF748F9774A099B5367FEF74FFF03909E
S214003200FEF770FF03461846FFF760F9FFF750F920
S214003210034619460398FFF78DFA059B002B03D14A
S2140032200121002000F0BCFCFFF786FBC8E06A4BDB
S21400323006939DF80330062B04D142F22C01644815
S214003240FFF7C6F8069B002B01D0069B00E0634BF9
S21400325006939DF80330062B04D142F23C015C48ED
S214003260FFF7B6F8069B002B01D0069B00E05C4BF0
S21400327006939DF80330013B092B3BD801A252F878
S21400328023F000BFAD320000B3320000C3320000AE
S214003290F5320000F5320000D3320000F5320000AF
S2140032A0F5320000F5320000EF32000000230793ED
S2140032B026E001220121002000F01CF902230793DA
S2140032C01EE001220121012000F014F901230793DA
S2140032D016E0FEF707FF03461846FFF7F7F8012249
S2140032E002214048FFF78EF80323079308E00423E3
S2140032F0079305E042F267013548FFF769F85FE09B
S214003300069B079A1A605BE09DF80330072B02D0F5
S214003310092B04D007E02F4B00221A6709E02D4B3B
S21400332001221A6705E042F2F1012948FFF750F83A
S21400333046E045E09DF80330013B072B28D801A264
S21400334052F823F0653300009133000091330000FB
S2140033507B33000091330000913300006B33000094
S2140033608B3300000023079318E00122012104207C
S21400337000F0C0F80123079310E00122012102208B
S21400338000F0B8F80223079308E00323079305E04C
S21400339042F24F110E48FFF71BF811E00D4BD3F821
S2140033A05C3123F03002079B1B010A491343C1F826
S2140033B05C3105E042F226210548FFF709F800BF18
S2140033C00BB05DF804FB00BF002D31010148E80199
S2140033D004FB000000400E4080400E4088400E4037
S2140033E084400E40B0400E40014B1B6818467047A4
S2140033F02010002010B584B001901120FFF73EFD8C
S2140034000346042B04D142F20F513748FEF7E0FF83
S21400341001220021022000F06DF8019B5B78002B52
S21400342007D1019B9B78002B03D1019BDB78002BF7
S21400343004D042F24B512C48FEF7CAFF00230393F8
S214003440019B1B7C012B04D142F252512648FEF709
S214003450BFFF019B1B7C022B01D101230393234B4F
S2140034605B6A23F001022149039B13434B62019BD5
S2140034701B781A4608211E48FEF7C4FF019B9B884E
S214003480DB02019A527A1146184A0B43D362174B55
S2140034901B6B03F07F62019BDB88DB021343019A00
S2140034A0927A1A43019B1B7ADB0142EA0304019BD2
S2140034B01B7A1846FFF760F903460C4A234313634A
S2140034C0019B5B7B1A03019B9B7B1B011343019AA9
S2140034D0D27B1A43019B1B7B1B04044913434B639B
S2140034E000BF04B010BD00BF04FB000000400E404B
S2140034F024400E4000B589B003468DF807300B46D1
S2140035008DF8063013468DF805309DF80730042BED
S2140035103BD801A252F823F0753500006335000051
S2140035203F3500002D35000051350000012305937E
S2140035300223049301230793002306932BE004231E
S214003540059308230493032307930223069322E09C
S214003550102305932023049305230793042306933F
S21400356019E040230593802304930723079306233B
S214003570069310E04FF4807305934FF400730493A2
S214003580092307930823069305E042F2746149482D
S214003590FEF71EFF8BE09DF80630002B6AD0002356
S2140035A08DF80F309DF80730022B1BD1FFF7FAF885
S2140035B00346002B16D1404BDB6B03F48063002BD5
S2140035C004D142F283613B48FEF702FF01238DF8E7
S2140035D00F303A4B5B6A03F00103012B02D1012046
S2140035E0FFF7EAF8354A059B136600BF069934488C
S2140035F0FEF728FF0346002BF8D09DF80530002B79
S21400360055D000BF07992E48FEF71CFF0346002B37
S214003610F8D09DF80730022B49D19DF80F30002BCB
S21400362045D0264B5B6A03F00103012B05D101222E
S2140036302021022000F090F903E00021022000F093
S2140036402DF9022000F03EF802900122002102200F
S214003650FFF750FF0299022000F074F8174A059B06
S214003660136600BF07991648FEF7ECFE0346002BCC
S214003670F8D01CE0114A049B136600BF0F4BD3F82A
S21400368090300121069A01FA02F21340002BF5D180
S2140036909DF80530002B0AD000BF084BD3F89030B9
S2140036A00121079A01FA02F21340002BF5D109B066
S2140036B05DF804FB04FB000000300E4000400E40A6
S2140036C090400E4000B585B003468DF807309DF853
S2140036D00730013B032B24D801A252F823F000BF89
S2140036E0F136000015370000FD36000009370000EF
S2140036F0124B1B6AC3F3080303931AE00F4B1B69B4
S21400370003F07F03039314E00C4B9B6903F07F03E5
S21400371003930EE0094BD3F89C30C3F30A030393DC
S21400372007E0002303934FF41C510548FEF750FEB4
S21400373000BF039B184605B05DF804FB00400E4032
S21400374004FB000000B585B0034600918DF80730F5
S2140037509DF80730013B032B00F28D8001A252F842
S21400376023F000BF7537000029380000B537000089
S214003770EF370000009BB3F5007F04D342F22571BB
S2140037804248FEF725FE009BC3F30803009300BFE4
S2140037901A213F48FEF756FE0346002BF8D13D4B54
S2140037A01B6A23F4FF7323F001033A49009A13437C
S2140037B00B6266E0009B7F2B04D942F232713348DD
S2140037C0FEF706FE009B03F07F03009300BF182160
S2140037D02F48FEF737FE0346002BF8D12D4B1B690A
S2140037E023F07F022B49009B13430B6149E0009BAB
S2140037F07F2B04D942F24D712448FEF7E9FD009B69
S21400380003F07F03009300BF19212148FEF71AFE3C
S2140038100346002BF8D11F4B9B6923F07F021D49FE
S214003820009B13438B612CE01A4BD3F8903003F0C7
S2140038300403002B04D042F25D711448FEF7C8FD65
S214003840144B5B6A23F03003124A43F010035362B2
S214003850009BDB0903F00F031846FEF78DFF03906D
S2140038600C4B1A6B0C4B1340009A1A430949039BE6
S21400387013430B6305E042F277710448FEF7A8FD98
S21400388000BF00BF05B05DF804FB00BF04FB0000EE
S21400389040410E4000400E4000F8FF0F00B585B0D6
S2140038A003460A468DF8073013468DF806309DF815
S2140038B00730022B04D042F28F712448FEF788FDB1
S2140038C0FEF770FF0346002B03D14FF4400303932B
S2140038D01DE09DF80630302B0DD0302B0FDC002B72
S2140038E005D0202B0BD14FF4000303930FE04FF4C9
S2140038F0400303930BE04FF44003039307E0144B9D
S214003900039342F2AA711148FEF762FD00BF00BFA2
S214003910104BD3F89020039B1340039A9A42F7D19A
S214003920039B03F48003002B0AD00A4BD3F8A03085
S21400393003F48063002B14BF01230023DBB200E0F6
S2140039400123184605B05DF804FB00BF04FB000029
S214003950FF33E10700400E4000B583B003468DF804
S21400396007300B468DF8063013468DF805309DF867
S2140039700730022B1AD19DF80630002B08D0114BC9
S2140039804FF48062C3F8A8200E4A9DF806305366AE
S2140039909DF80530002B0FD09DF806209DF80730C7
S2140039A011461846FFF77AFF034607E042F2E07139
S2140039B00548FEF70DFD00E000BF0123184603B0E2
S2140039C05DF804FB00400E4004FB000082B0EFF3FD
S2140039D010830093009B019372B600BF019B1846AC
S2140039E002B0704782B00190019B002B01D162B6F5
S2140039F000BF00BF02B0704784B0EFF3118301939D
S214003A00019B039360230293029B83F3118800BFFC
S214003A10039B184604B0704784B00190019B039343
S214003A20039B83F3118800BF00BF04B070470000FB
S214003A30054B5B68C3F30803002B14BF0123002368
S214003A40DBB21846704700BF00ED00E082B0EFF32F
S214003A5010830193019B03F00103012B05D0EFF3C4
S214003A6011830093009B5F2B01D9012300E0002304
S214003A7003F00103DBB2184602B0704700B587B00A
S214003A80039002910192029B1F2B03D991210A48B1
S214003A90FEF79EFC039B03F1424303F58013DA0016
S214003AA0029B13449B000593059B019A1A6000BF76
S214003AB007B05DF804FB00BFA4FB000084B00190D3
S214003AC00091019B03F1424303F58013DA00009B4B
S214003AD013449B000393039B1B68184604B070476F
S214003AE0054B1B6803F04003002B01D1012300E0C7
S214003AF000231846704700BF3C300E4008B5FFF75D
S214003B00EFFF034683F00103DBB2002B08D100BFB2
S214003B1012210448FFF7D2FF0346002BF8D100E03D
S214003B2000BF08BD04300E4008B5FFF7E7FF044BA2
S214003B305B681B0C03F00303DBB2184608BD00BF2E
S214003B4000300E4082B00190024A019BD36200BF53
S214003B5002B0704700300E40014B5B6A1846704753
S214003B6000300E40024B00225A6300BF704700BF71
S214003B7000300E40024B4AF6E8525A6300BF7047C8
S214003B8000300E4082B003468DF807309DF80730AF
S214003B90C3F10203102202FA03F3184602B070477C
S214003BA000B585B001900B468DF80330FFF798FFFF
S214003BB0034683F00103DBB2002B2AD1019B002BC6
S214003BC00FD1164BD3F800311B0A03F01F03013345
S214003BD00293FEF787FA0246029B02FB03F3039367
S214003BE001E0019B03930E4B1B78002B0AD0039B2E
S214003BF00C4A934206D89DF803301946022000F07E
S214003C0013F807E09DF803301946002000F00CF882
S214003C1000E000BF05B05DF804FB00BF00400E40AA
S214003C203C670020002D310110B586B003460A46D9
S214003C308DF8073013468DF80630FFF751FF034620
S214003C4083F00103DBB2002B3FD1FFF76DFF034685
S214003C501A469DF80730934239D01E4BD3F80031F0
S214003C601B0A03F01F0301330593FEF73BFA04908B
S214003C70049B059A02FB03F303939DF80730022B7F
S214003C800CD1039B144A934204D940F23161134885
S214003C90FEF79EFB02210498FEF74CFD104C9DF8A3
S214003CA007301846FFF76EFF034623619DF806307F
S214003CB0002B01D0FFF722FF9DF80730002B07D11D
S214003CC000210498FEF736FD02E000BF00E000BFCA
S214003CD006B010BD00400E40002D31011CFC000057
S214003CE000300E4000B583B001900E4B1B6823F4E5
S214003CF04072019B5B781B020A4913430B60019BD1
S214003D005B78022B0AD1084B5B6A03F00053002B4A
S214003D1004D040F26D610548FEF75AFB00BF03B0C1
S214003D205DF804FB00300E4000400E401CFC000016
S214003D30012318467047000000B583B00C4BDB6EBD
S214003D400B4A43F08073D36600210A48FFF7B6FE9D
S214003D500190019B002B03D0042000F075FD02E0CB
S214003D60002000F071FD00BF03B05DF804FB00BF4B
S214003D7000300E404C300E4000B58BB00123099346
S214003D80099B1B050893424BDB6C1B0A03F00F03D1
S214003D900793404B1B881A463E4B1B8828335B080C
S214003DA0134403F12801079B5A1C13469B00134437
S214003DB0B1FBF3F3013B0693069B0593072304939D
S214003DC0049A059B934228BF13460693069B1B0640
S214003DD00693069B23F0E063002B04D040F689018F
S214003DE02D48FEF7F5FA089B23F4E003002B04D0D9
S214003DF040F68A012848FEF7EBFA254BDB6C23F0E9
S214003E00EE620699089B0B4321491343CB64234B70
S214003E10B3F90030002B36DB204BB3F90030ADF899
S214003E200E30BDF80E20BDF80E3028335B08134464
S214003E3003F12802079B01335900079B01335B08F7
S214003E400B44B2FBF3F30293029B01930723009308
S214003E50009A019B934228BF13460293029B1B01C4
S214003E600293029B23F07003002B04D040F6A201BD
S214003E700948FEF7ADFA064B1B6D23F070020449A5
S214003E80029B13430B6500BF0BB05DF804FB00BF3D
S214003E9000300E40366700201CFC00003A67002009
S214003EA082B001900B46ADF80230019B9AB2044BEB
S214003EB01A80044ABDF80230138000BF02B0704773
S214003EC0366700203A67002000B583B003468DF8B9
S214003ED007309DF80730002B02D0012B04D007E0F6
S214003EE0084B094A9A6509E0064B084A9A6505E0B8
S214003EF040F6CE010648FEF76BFA00BF00BF03B0DF
S214003F005DF804FB00300E4077402057372110B78D
S214003F101CFC000000B585B003468DF807300B4644
S214003F208DF8063013468DF80530344BD3F88031C3
S214003F3003939DF80630032B1CD801A252F823F0F9
S214003F40513F0000593F0000633F00006D3F0000F6
S214003F50039BDBB2039314E0039B1B0ADBB20393C1
S214003F600FE0039B1B0CDBB203930AE0039B1B0EC4
S214003F70039306E040F612112148FEF729FA0023C3
S214003F8038E09DF80530002B16D1039B1B030393E6
S214003F90039B23F47043002B06D040F61D111848EF
S214003FA0FEF716FA002325E0164BDB6E23F470426C
S214003FB01449039B1343CB669DF80530012B18D19B
S214003FC0039B1B030393039B23F47043002B06D031
S214003FD040F629110A48FEF7FBF900230AE0094BD0
S214003FE0D3F8EC3023F470420649039B1343C1F820
S214003FF0EC300123184605B05DF804FBB081E00FF5
S2140040001CFC000000300E4000B589B00390029101
S21400401011461A460B468DF8073013468DF80630C3
S21400402000230793002306939DF806301B029DF895
S2140040300720002A01D0012200E000221343059346
S214004040059B40F2013293425CD0059B40F2013260
S214004050934200F29380059BB3F5407F00F0828088
S214004060059BB3F5407F00F28980059B40F2012254
S21400407093423BD0059B40F2012293427ED8059B9B
S214004080B3F5007F62D0059BB3F5007F76D8059B1D
S21400409040F2011293421DD0059BB3F5817F6DD28D
S2140040A0059BB3F5807F45D0059BB3F5807F65D82B
S2140040B0059B002B32D0059B012B5FD1374BD3F8E5
S2140040C074310793079B1B0ADBB20693079BDBB290
S2140040D0079359E0314BD3F874310793079B1B0EB7
S2140040E00693079B1B0CDBB207934DE02B4BD3F8D4
S2140040F078310793079B1B0ADBB20693079BDBB25C
S214004100079341E0254BD3F878310793079B1B0EA6
S2140041100693079B1B0CDBB2079335E01F4BD3F8C7
S2140041206C310793079B1B0ADBB20693079BDBB237
S214004130079329E0194BD3F86C310793079B1B0EA6
S2140041400693079B1B0CDBB207931DE0134BD3F8BB
S21400415070310793079B1B0ADBB20693079BDBB203
S214004160079311E00D4BD3F870310793079B1B0E96
S2140041700693079B1B0CDBB2079305E040F68E11F7
S2140041800748FEF725F900BF039B079A1A60029BB3
S214004190069A1A6000BF09B05DF804FBB081E00F14
S2140041A01CFC000000B585B003468DF80730424B76
S2140041B05B6B012B0CBF012300238DF80F30FFF73C
S2140041C0D9FC00BF3C4B9B6F03F00103002BF9D1D9
S2140041D0394B1B6C03F003030293029B002B04D0A5
S2140041E001220D213548FFF749FC029BDBB29DF802
S2140041F007209A4209D19DF80730002B58D100229B
S2140042000D212E48FFF73AFC52E0029B032B02D00A
S214004210029B002B22D19DF80730022B03D09DF87D
S2140042200730012B1AD14FF40020FFF78BFC00BF9C
S214004230214B9B6F03F00103002BF9D11E4B1B6C27
S21400424023F003031C4A43F00103136400BFFFF787
S21400425083FC034603F40023002BF8D000BF164B64
S2140042609B6F03F00103002BF9D1134B1B6C23F05B
S21400427003029DF80730104913430B6400BF0E4B32
S2140042809B6F03F00103002BF9D19DF80730002B3C
S21400429014BF01230023DBB21A460D210748FFF79F
S2140042A0EDFB9DF80F30002B03D0FFF75BFC00E022
S2140042B000BF05B05DF804FB00300E4054300E40E1
S2140042C000B585B001906C4B02229A636A4B9B6BDB
S2140042D003F00F03022B06D040F64B216748FEF78B
S2140042E077F80023C3E0FFF723FD019B1B89C82B4B
S2140042F004D940F655216148FEF76AF8019B9A8872
S214004300019B1B899A4204D940F656215B48FEF76A
S2140043105FF8019BB3F90C30C82B04DD40F657213B
S2140043205648FEF755F8019B5B78012B09D1019B97
S2140043309B88C82B12D940F65B215048FEF748F8F8
S2140043400CE0019B5B78022B08D1019B9B880A2B13
S21400435004D94FF426614948FEF73AF8019BDB88FA
S21400436042F21072934204D940F668214348FEF7A1
S2140043702FF8019BDB884A2B02D80023039315E015
S214004380019BDB88B3F5FA7F03D24FF0805303938B
S2140043900CE0019BDB8840F6C312934203D84FF033
S2140043A00053039302E04FF040530393324BDB6C11
S2140043B023F0405323F00103019AB2F90C20002A9F
S2140043C001DB012100E00021039A0A432A49134336
S2140043D0CB64294BD3F8EC30274A43F44073C2F839
S2140043E0EC30019B9A88264B1A80FFF7A5FC019BB0
S2140043F01B891A46019BB3F90C3019461046FFF785
S2140044004FFD019B9B88184600F0ACF9019B9B7BF7
S2140044101846FFF759FD019B5B88012201211846CB
S21400442000F032F8034683F00103DBB2002B06D01F
S21400443040F69F211148FDF7CBFF002317E00E4BF7
S214004440DB6B0D4A43F48063D363019B5B781846AD
S214004450FFF7A8FE019B9B7A202B01D1012300E0E9
S21400446000231A4605210748FFF708FB01231846D4
S21400447005B05DF804FB00BF00300E401CFC0000D9
S214004480386700203C300E4010B594B001900B46C3
S2140044908DF8033013468DF8023000231393002363
S2140044A0119309AB00221A605A609A6006AB00228C
S2140044B01A605A609A6003AB00221A605A609A60CB
S2140044C0A44B1B88ADF8083000238DF80A30019BFA
S2140044D0B3F5E16F06D3019B40F6B832934201D89C
S2140044E0012300E000238DF843309DF8433003F0AD
S2140044F001038DF843309DF8433083F00103DBB2AF
S214004500002B06D040F6EE219348FDF761FF00230E
S2140045101DE1019BB3F5E16F8CBF012300238DF8ED
S21400452042309DF84230002B0AD04FF4E1631393DB
S21400453040F6B8331193119A139BD31A129309E0DD
S2140045404FF4966313934FF4E1631193119A139B00
S214004550D31A12939DF84230002B0BD07F4BD3F822
S21400456068310893089B1B0E0593089B1B0CDBB257
S21400457008930AE0794BD3F868310893089B1B0A26
S214004580DBB20593089BDBB20893754BDB6C1B0F05
S214004590DBB203F00303DBB28DF808309DF8083079
S2140045A09DF8422003A906A8FFF72EFD6C4BD3F812
S2140045B0EC301B0ADBB203F00303DBB28DF80930E4
S2140045C09DF809409DF8422003AB191D06AB181D47
S2140045D02346FFF719FD019A139BD31A0599089AEB
S2140045E08A1A03FB02F2129BB2FBF3F30B930B9AAD
S2140045F0089B13440B93019A139BD31A0399069AAC
S2140046008A1A03FB02F2129BB2FBF3F30993099A90
S214004610069B13440993019A139BD31A0499079A8D
S2140046208A1A03FB02F2129BB2FBF3F30A930A9A6E
S214004630079B13440A930B9A059B9A4213D80B9A2E
S214004640089B9A420FD30A9A049B9A420BD80A9A5E
S214004650079B9A4207D3099A039B9A4203D8099A62
S214004660069B9A4206D240F63C313B48FDF7B0FE28
S21400467000236CE09DF80230002B12D0384BDB6D27
S21400468023F4FE4323F002030B9A120213439DF811
S2140046904220002A01D0022200E0002230491343C3
S2140046A0CB659DF80330002B50D09DF808109DF880
S2140046B0423000221846FFF72DFC034683F0010324
S2140046C0DBB2002B06D040F64B312348FDF780FEC8
S2140046D000233CE09DF809109DF842300122184660
S2140046E0FFF718FC034683F00103DBB2002B06D06D
S2140046F040F653311848FDF76BFE002327E0099B70
S2140047000F930A9B0E930E9A0F9B934238BF134645
S2140047100993099B0D93E7230C930C9A0D9B9342E8
S21400472028BF134609930E4B5B6E23F4FF7323F0EA
S2140047300103099A520013439DF84220002A01D033
S214004740012200E00022064913434B660123184667
S21400475014B010BD94FC00001CFC0000B081E00FFB
S21400476000300E4000B585B0019000230393344B13
S2140047701B6F03F007030293314BDB6C03F001035E
S214004780002B14D0029B012B11D9019B132B02D8AE
S214004790042303933DE0019B132B05D9019B272B94
S2140047A002D80823039334E01023039331E0244B0C
S2140047B0DB6C03F00103002B14D1029B012B11D8F4
S2140047C0019B092B02D80423039322E0019B092BAB
S2140047D005D9019B132B02D80823039319E0102355
S2140047E0039316E0164BDB6C03F00103002B0BD093
S2140047F0029B012B08D8019B272B02D80823039382
S21400480007E01023039304E040F691310D48FDF7CE
S214004810DFFD039B013B0393039B1A02039B1B03D1
S21400482013430393064BDB6C23F47F420449039B3C
S2140048301343CB64FFF7A0FA00BF05B05DF804FB96
S21400484000300E401CFC000000B585B003468DF815
S214004850073000211248FFF731F90390039B002B25
S21400486003D19DF80730012B07D9039B002B04D1F9
S21400487040F6AF310B48FDF7ABFD0B4B1B6F23F03B
S21400488007029DF80730084913430B67074B1B8840
S2140048901846FFF767FF00BF05B05DF804FB00BFD2
S2140048A04C300E401CFC000000300E4038670020E4
S2140048B000B583B0144B02229A63134BDB6B124A8B
S2140048C043F48063D36300BF0F4B9B6F03F0010379
S2140048D0002BF9D10C4B03221A640B4B1B6C032BD9
S2140048E00CBF012300238DF807309DF80730002BFE
S2140048F004D140F6DD310548FDF76AFD9DF8073026
S214004900184603B05DF804FB00300E401CFC0000A7
S21400491000B587B0039002910192029B1F2B03D92A
S21400492091210A48FDF754FD039B03F1424303F52A
S2140049308013DA00029B13449B000593059B019AA3
S2140049401A6000BF07B05DF804FB00BF98FC0000CB
S21400495084B001900091019B03F1C0630393039B15
S214004960009A1A6000BF04B0704784B001900091AE
S214004970019B03F180630393039B009A1A6000BFB8
S21400498004B0704700B587B0039002910192FFF71C
S2140049901DF80590039B1A68029BDB431A40019999
S2140049A0029B0B401A43039B1A600598FFF71AF800
S2140049B000BF07B05DF804FB82B00190034A019B7C
S2140049C0C2F8243400BF02B0704700BF00A0004009
S2140049D000B583B0034600918DF807309DF8073088
S2140049E0002B42D09DF80730012B3BD09DF80730B6
S2140049F0022B34D09DF80730032B2DD09DF80730BE
S214004A00042B27D09DF80730052B20D09DF80730C3
S214004A10062B1AD09DF80730072B14D09DF80730C8
S214004A20082B0ED09DF80730092B07D09DF80730CD
S214004A300A2B01D107231AE0002318E04FF4404365
S214004A4015E00F2313E0002311E000230FE04FF6DC
S214004A50FF730CE000230AE04FF47F4307E040F6C4
S214004A60FF7304E04FF6C07301E040F2FF33009A94
S214004A70D34003F00103002B04D14FF479710D48A5
S214004A80FDF7A6FC9DF8072013465B0013441B01A8
S214004A900C3303F1804303F520430121009A01FA09
S214004AA002F211461846FFF760FF00BF03B05DF83C
S214004AB004FB00BF10FD000000B583B00346009164
S214004AC08DF807309DF80730002B42D09DF8073050
S214004AD0012B3BD09DF80730022B34D09DF80730D1
S214004AE0032B2DD09DF80730042B27D09DF80730D8
S214004AF0052B20D09DF80730062B1AD09DF80730DE
S214004B00072B14D09DF80730082B0ED09DF80730E1
S214004B10092B07D09DF807300A2B01D107231AE08E
S214004B20002318E04FF4404315E00F2313E0002362
S214004B3011E000230FE04FF6FF730CE000230AE0BD
S214004B404FF47F4307E040F6FF7304E04FF6C07370
S214004B5001E040F2FF33009AD34003F00103002B3C
S214004B6004D140F213410D48FDF732FC9DF80720B2
S214004B7013465B0013441B010C3303F1804303F51B
S214004B8020430121009A01FA02F211461846FFF767
S214004B90DFFE00BF03B05DF804FB00BF10FD0000A1
S214004BA000B583B0034600918DF807309DF80730B6
S214004BB0002B27D09DF80730012B23D09DF8073017
S214004BC0022B1FD09DF80730032B1BD09DF8073013
S214004BD0042B1CD09DF80730052B13D09DF807300A
S214004BE0062B14D09DF80730072B10D09DF8073001
S214004BF0082B07D09DF80730092B03D09DF8073007
S214004C000A2B04D1009B23F00113002B03D07D2137
S214004C100B48FDF7DDFB9DF8072013465B001344A9
S214004C201B0103F1804303F52043009A4FF0011166
S214004C301846FFF7A7FE00BF03B05DF804FB00BFF1
S214004C4088FD000000B587B0029101921A4603461F
S214004C508DF80F3013468DF80E30002305939DF81F
S214004C600F30002B42D09DF80F30012B3BD09DF823
S214004C700F30022B34D09DF80F30032B2DD09DF82B
S214004C800F30042B27D09DF80F30052B20D09DF831
S214004C900F30062B1AD09DF80F30072B14D09DF836
S214004CA00F30082B0ED09DF80F30092B07D09DF83B
S214004CB00F300A2B01D107231AE0002318E04FF427
S214004CC0404315E00F2313E0002311E000230FE01C
S214004CD04FF6FF730CE000230AE04FF47F4307E033
S214004CE040F6FF7304E04FF6C07301E040F2FF3376
S214004CF0029AD34003F00103002B03D1BF213B48A7
S214004D00FDF766FB019A029B534023F00303002B3A
S214004D1003D0C1213548FDF75BFB019B072B0FD85D
S214004D20019B9B000F2202FA03F19DF80F20019BC6
S214004D309B0002FA03F31A462D48FFF723FE11E004
S214004D40019B083B0593059B9B000F2202FA03F18B
S214004D509DF80F20059B9B0002FA03F31A46254890
S214004D60FFF710FE019B072B10D8019B9B00032228
S214004D7002FA03F1029B03F00302019B9B0002FA76
S214004D8003F31A461C48FFF7FDFD0FE0059B9B004A
S214004D90032202FA03F1029B03F00302059B9B0029
S214004DA002FA03F31A461548FFF7ECFD9DF80E309D
S214004DB01A4601991248FFF7ABFD9DF820301A46B7
S214004DC001991048FFF7A4FD0122019B02FA03F3A4
S214004DD01846FFF7F1FD9DF824301A4601990A4857
S214004DE0FFF796FD00BF07B05DF804FB88FD0000E6
S214004DF000A4004004A4004008A400400CA4004006
S214004E0010A4004014A4004028A4004000B585B0BB
S214004E100291019303468DF80F3013468DF80E303D
S214004E209DF80F30002B42D09DF80F30012B3BD061
S214004E309DF80F30022B34D09DF80F30032B2DD069
S214004E409DF80F30042B27D09DF80F30052B20D06F
S214004E509DF80F30062B1AD09DF80F30072B14D074
S214004E609DF80F30082B0ED09DF80F30092B07D079
S214004E709DF80F300A2B01D107231AE0002318E013
S214004E804FF4404315E00F2313E0002311E0002306
S214004E900FE04FF6FF730CE000230AE04FF47F4369
S214004EA007E040F6FF7304E04FF6C07301E040F2FF
S214004EB0FF33029AD34003F00103002B04D140F2E3
S214004EC01D113D48FDF784FA9DF80E30002B0FD0DB
S214004ED0019B002B06D09DF80F3002991846FFF76D
S214004EE0EBFD05E09DF80F3002991846FFF770FDC0
S214004EF0029B072B23D831499DF80F2013465B00F1
S214004F0013441B010B4404331A68029B9B000F21B9
S214004F1001FA03F3DB4313409DF80E10029A920049
S214004F2001FA02F2114625489DF80F201943134650
S214004F305B0013441B0103440433196024E01F493B
S214004F409DF80F2013465B0013441B010B440833E7
S214004F501A68029B083B9B000F2101FA03F3DB4310
S214004F6013409DF80E10029A083A920001FA02F2D7
S214004F70114612489DF80F20194313465B00134450
S214004F801B010344083319609DF80E30002B0FD127
S214004F90019B002B06D09DF80F3002991846FFF7AC
S214004FA08BFD05E09DF80F3002991846FFF710FDBF
S214004FB000BF05B05DF804FB88FD000000A00040BF
S214004FC000B587B0039002910192029B1F2B03D974
S214004FD091210A48FDF7FCF9039B03F1424303F5D0
S214004FE08013DA00029B13449B000593059B019AED
S214004FF01A6000BF07B05DF804FB00BF00FE0000AB
S21400500000B583B001900091019B022B03D94C217F
S2140050101748FDF7DDF9009B5B791F2B03D94F215D
S2140050201348FDF7D5F9009B1B781A46009B5B7862
S2140050309B001A43009B9B789B011A43009BDB78DE
S2140050401B011A43009B1B79DB021A43009B5B790A
S2140050501B031A43009B9B795B0406491A43019B7A
S21400506004331B010B441A6000BF03B05DF804FB59
S21400507078FE00000020044000B583B003468DF89B
S21400508007309DF807301A4600210348FFF798FFBF
S21400509000BF03B05DF804FB0020044082B001901E
S2140050A0019B1B78002B01D0012200E00022019B0F
S2140050B05B78002B01D0042300E000231343019A01
S2140050C09278002A01D0102200E000221343019AB1
S2140050D0D278002A01D0202200E000221A43019B49
S2140050E01B791B021A43019B5B791B031343019A2E
S2140050F09279002A02D04FF4004200E000221A43C0
S214005100019BDB791B041343019A127A002A02D012
S2140051104FF4003200E00022024913430B6000BF48
S21400512002B070470020044082B001900B468DF814
S21400513003309DF8033063F07F03DBB21A46019B11
S2140051409A6500BF02B0704700B587B00390029121
S2140051500192019B002B04D14FF422711248FDF7F7
S21400516037F9029B002B03D11048FDF761FC029033
S214005170029B5A1E019B5B00B2FBF3F30593059B53
S2140051801B020593059A0A4B1340002B04D040F2ED
S214005190A5210548FDF71CF9039B059A5A6100BF37
S2140051A007B05DF804FB00BFF0FE000040410500BC
S2140051B0070080FF00B583B001900091019B3B4A39
S2140051C0934210D0019B3A4A93420CD0019B394A35
S2140051D0934208D0019B384A934204D04FF456714C
S2140051E03648FDF7F5F8019800F06AF8019B1A6852
S2140051F0009B1B8A43F001039BB21946009B9B7BD6
S214005200002B02D04FF4806300E000230B431A43C8
S214005210019B1A60019B1B68009A127D002A02D02F
S2140052204FF0005200E000221A43019B1A60009BD8
S2140052309B7C002B05D0009BDB7C19460198FFF772
S21400524073FF009B1B7B43F48052019B5A60009BBC
S2140052505968009B9B681A460198FFF775FF009BEC
S2140052605B7B002B02D0019B1022DA60009B5B7DEB
S214005270002B05D0019B1B6843F48032019B1A600B
S214005280009B9B7D1B0703F0E042009BDB7D1B051C
S21400529003F4E0031A43019B1A66009B1B781A4628
S2140052A0019BDA6000BF03B05DF804FB000001401C
S2140052B00004014000080140000C0140F0FE000020
S2140052C000B583B00190019B2D4A934210D0019BFC
S2140052D02C4A93420CD0019B2B4A934208D0019B48
S2140052E02A4A934204D040F22E412948FDF770F82E
S2140052F0019B40F6AA62DA60019B00221A60019BBD
S21400530041F205025A60019B00229A60019B00222E
S2140053105A61019B0022DA64019B1E4A9A64019B33
S21400532000221A66019B00225A67019B00229A6798
S214005330019B0022DA67019B114A93420BD0019B26
S214005340104A934207D0019B0F4A934203D0019B19
S2140053500E4A934202D1019B00221A65019B00224D
S2140053609A65019B074A934203D0019B074A9342E2
S21400537002D1019B0022DA6500BF03B05DF804FB92
S214005380000001400004014000080140000C0140FC
S214005390F0FE0000F9FF010082B001900B468DF888
S2140053A0033000BF019B1B6903F04003002BF9D0BC
S2140053B09DF80320019B5A6300BF02B070470000AF
S2140053C000B58BB00790069105920493069B09934F
S2140053D0049B002B01D100F0FCF8099B002B01D1A7
S2140053E0094B0993049B0293002301930123009326
S2140053F00423059A0999079800F008F80890089B76
S21400540018460BB05DF804FB2C10002000B589B0E0
S2140054100590049103920293039B002B0DD10C9BE5
S21400542008221A700C9B2A4A5A600C9B4FF4D962C9
S2140054309A600C9B274ADA60FEE7029B002B05D099
S214005440029B5A1E029B1340002B02D0029B002B8D
S21400545001D1012300E00023002B0DD10C9B082274
S2140054601A700C9B1A4A5A600C9B40F2CB629A60E8
S2140054700C9B184ADA60FEE7FEF7BEFA07900C9B14
S21400548001930B9B00930A9B029A0399049800F0E1
S21400549023F806900C9B1B78002B11D00798FEF77C
S2140054A0BBFA0C9B16221A700C9B094A5A600C9B7E
S2140054B040F2D7629A600C9B064ADA60002303E04B
S2140054C00798FEF7A9FA069B184609B05DF804FB94
S2140054D068FF0000F4FF00008AB00390029101927A
S2140054E00093019B002B01D0019B00E00423009A4F
S2140054F0934238BF13460993039B9B681A46099B41
S2140055005B421A40039B9B681946099B013B0B4074
S214005510002B01D0099B00E0002313440893089A4F
S214005520029B1A44009B5B421A400899029B19444E
S214005530009B013B0B40002B01D0009B00E00023AA
S21400554013440793039B5B681A46039B9B68D31A16
S21400555001330693039B9B681A46079B9B1A059389
S214005560069A059B9A4216D20A9B002B04D0059AEF
S214005570069BD21A0A9B1A600B9B16221A700B9B6C
S2140055800F4A5A600B9B40F222729A600B9B0D4AA0
S214005590DA60002310E0079A039B9A600B9B0022B8
S2140055A01A700B9B064A5A600B9B4FF4E5629A6092
S2140055B00B9B044ADA60089B18460AB0704700BF87
S2140055C068FF00000C00010008B500F017F800BFE7
S2140055D008BDFEE700B583B004F094FB0190019B84
S2140055E0184603B05DF804FB82B00190024A019BA6
S2140055F0136000BF02B07047408B002008B5034B15
S21400560000221A6004F05CFB00BF08BD408B00203F
S21400561000BF704710B582B001900A4B1B78002B74
S21400562001D0FFF7D6FF019B002B00D1FEE7064B0B
S214005630019A03F1200413460FCB84E80F0000BF45
S21400564002B010BDD98C002040100020F0B587B005
S2140056500190019B002B01D1FFF7BBFF894B5B68D4
S214005660002B2CD0874B1B68002B10D1854B196B59
S214005670844B5B689A00019B8348FFF7A1FE0346B4
S214005680824A1360019B1B78002B04D010E27D4BEE
S2140056901B687E4A13607D4B1B687D4A1360794BFE
S2140056A05B687C4A1360774B5B689B007A4A1360A2
S2140056B07A4B1A68784B1B681344784A1360714B10
S2140056C01B89002B24D06F4B196B6E4B1B891A015C
S2140056D0019B7348FFF774FE0346724A1360019BF2
S2140056E01B78002B40F0D9816E4B1B686E4A136006
S2140056F0644B1A896D4B1A80624B1B891B016C4ADE
S2140057001360664B1A686A4B1B681344634A13603F
S2140057105C4B5B69002B40D05A4B1B69002B10D1A9
S214005720584B196B574B5B699A00019B6148FFF712
S21400573047FE0346604A1360019B1B78002B04D08B
S214005740B6E1504B1B695C4A13604E4B1A7E5B4BAE
S2140057501A704C4BDB695A4A1360574B1B68594A00
S2140057601360484B5B69474AD26802FB03F3564A0C
S214005770A2FB03235B09554A1360424B5B69544AFC
S2140057801360404B5B699B00524A1360434B1A6898
S214005790504B1B681344414A13603A4B5B6A002B1C
S2140057A041D0384B1B6A002B10D1364B196B354B4A
S2140057B05B6A9A00019B4848FFF702FE0346474A89
S2140057C01360019B1B78002B04D071E12D4B1B6AE4
S2140057D0424A13602B4B93F82820414B1A703F4BDC
S2140057E01B68404A1360274B5B6A264AD26802FB56
S2140057F003F3354AA2FB03235B093B4A1360214BA4
S2140058005B6A3A4A13601F4B5B6A9B00384A136018
S2140058101C4BDB6A374A1360204B1A68344B1B68F4
S21400582013441E4A1360174B5B6B334A136004F035
S2140058305BFB06F019F80390039B002B0DD0019B31
S21400584001221A70019B2D4A5A60019B4FF4D772B1
S2140058509A60019B2A4ADA602AE106F081F902463C
S214005860254B1B689A424DD2019B09221A70019B58
S214005870224A5A60019B4FF4D9729A60019B204AD3
S214005880DA60FEE74010002028000100448B00206C
S214005890548B0020588B00205C8B0020A08B0020AF
S2140058A03C000100488B0020608B0020648B0020A9
S2140058B0688B0020500001004C8B00206C8B002071
